{
    "abi": [
        {
            "type": "constructor",
            "inputs": [
                {
                    "name": "_validatorManager",
                    "type": "address",
                    "internalType": "contract ValidatorManager"
                },
                {
                    "name": "admin",
                    "type": "address",
                    "internalType": "address"
                }
            ],
            "stateMutability": "nonpayable"
        },
        {
            "type": "function",
            "name": "completeValidatorRegistration",
            "inputs": [
                {
                    "name": "messageIndex",
                    "type": "uint32",
                    "internalType": "uint32"
                }
            ],
            "outputs": [
                {
                    "name": "",
                    "type": "bytes32",
                    "internalType": "bytes32"
                }
            ],
            "stateMutability": "nonpayable"
        },
        {
            "type": "function",
            "name": "completeValidatorRemoval",
            "inputs": [
                {
                    "name": "messageIndex",
                    "type": "uint32",
                    "internalType": "uint32"
                }
            ],
            "outputs": [
                {
                    "name": "",
                    "type": "bytes32",
                    "internalType": "bytes32"
                }
            ],
            "stateMutability": "nonpayable"
        },
        {
            "type": "function",
            "name": "completeValidatorWeightUpdate",
            "inputs": [
                {
                    "name": "messageIndex",
                    "type": "uint32",
                    "internalType": "uint32"
                }
            ],
            "outputs": [
                {
                    "name": "",
                    "type": "bytes32",
                    "internalType": "bytes32"
                },
                {
                    "name": "",
                    "type": "uint64",
                    "internalType": "uint64"
                }
            ],
            "stateMutability": "nonpayable"
        },
        {
            "type": "function",
            "name": "initializeValidatorSet",
            "inputs": [
                {
                    "name": "conversionData",
                    "type": "tuple",
                    "internalType": "struct ConversionData",
                    "components": [
                        {
                            "name": "subnetID",
                            "type": "bytes32",
                            "internalType": "bytes32"
                        },
                        {
                            "name": "validatorManagerBlockchainID",
                            "type": "bytes32",
                            "internalType": "bytes32"
                        },
                        {
                            "name": "validatorManagerAddress",
                            "type": "address",
                            "internalType": "address"
                        },
                        {
                            "name": "initialValidators",
                            "type": "tuple[]",
                            "internalType": "struct InitialValidator[]",
                            "components": [
                                {
                                    "name": "nodeID",
                                    "type": "bytes",
                                    "internalType": "bytes"
                                },
                                {
                                    "name": "blsPublicKey",
                                    "type": "bytes",
                                    "internalType": "bytes"
                                },
                                {
                                    "name": "weight",
                                    "type": "uint64",
                                    "internalType": "uint64"
                                }
                            ]
                        }
                    ]
                },
                {
                    "name": "messageIndex",
                    "type": "uint32",
                    "internalType": "uint32"
                }
            ],
            "outputs": [],
            "stateMutability": "nonpayable"
        },
        {
            "type": "function",
            "name": "initiateValidatorRegistration",
            "inputs": [
                {
                    "name": "nodeID",
                    "type": "bytes",
                    "internalType": "bytes"
                },
                {
                    "name": "blsPublicKey",
                    "type": "bytes",
                    "internalType": "bytes"
                },
                {
                    "name": "remainingBalanceOwner",
                    "type": "tuple",
                    "internalType": "struct PChainOwner",
                    "components": [
                        {
                            "name": "threshold",
                            "type": "uint32",
                            "internalType": "uint32"
                        },
                        {
                            "name": "addresses",
                            "type": "address[]",
                            "internalType": "address[]"
                        }
                    ]
                },
                {
                    "name": "disableOwner",
                    "type": "tuple",
                    "internalType": "struct PChainOwner",
                    "components": [
                        {
                            "name": "threshold",
                            "type": "uint32",
                            "internalType": "uint32"
                        },
                        {
                            "name": "addresses",
                            "type": "address[]",
                            "internalType": "address[]"
                        }
                    ]
                },
                {
                    "name": "weight",
                    "type": "uint64",
                    "internalType": "uint64"
                }
            ],
            "outputs": [
                {
                    "name": "",
                    "type": "bytes32",
                    "internalType": "bytes32"
                }
            ],
            "stateMutability": "nonpayable"
        },
        {
            "type": "function",
            "name": "initiateValidatorRemoval",
            "inputs": [
                {
                    "name": "validationID",
                    "type": "bytes32",
                    "internalType": "bytes32"
                }
            ],
            "outputs": [],
            "stateMutability": "nonpayable"
        },
        {
            "type": "function",
            "name": "initiateValidatorWeightUpdate",
            "inputs": [
                {
                    "name": "validationID",
                    "type": "bytes32",
                    "internalType": "bytes32"
                },
                {
                    "name": "newWeight",
                    "type": "uint64",
                    "internalType": "uint64"
                }
            ],
            "outputs": [
                {
                    "name": "",
                    "type": "uint64",
                    "internalType": "uint64"
                },
                {
                    "name": "",
                    "type": "bytes32",
                    "internalType": "bytes32"
                }
            ],
            "stateMutability": "nonpayable"
        },
        {
            "type": "function",
            "name": "migrateFromV1",
            "inputs": [
                {
                    "name": "validationID",
                    "type": "bytes32",
                    "internalType": "bytes32"
                },
                {
                    "name": "receivedNonce",
                    "type": "uint32",
                    "internalType": "uint32"
                }
            ],
            "outputs": [],
            "stateMutability": "nonpayable"
        },
        {
            "type": "function",
            "name": "owner",
            "inputs": [],
            "outputs": [
                {
                    "name": "",
                    "type": "address",
                    "internalType": "address"
                }
            ],
            "stateMutability": "view"
        },
        {
            "type": "function",
            "name": "renounceOwnership",
            "inputs": [],
            "outputs": [],
            "stateMutability": "nonpayable"
        },
        {
            "type": "function",
            "name": "resendRegisterValidatorMessage",
            "inputs": [
                {
                    "name": "validationID",
                    "type": "bytes32",
                    "internalType": "bytes32"
                }
            ],
            "outputs": [],
            "stateMutability": "nonpayable"
        },
        {
            "type": "function",
            "name": "resendValidatorRemovalMessage",
            "inputs": [
                {
                    "name": "validationID",
                    "type": "bytes32",
                    "internalType": "bytes32"
                }
            ],
            "outputs": [],
            "stateMutability": "nonpayable"
        },
        {
            "type": "function",
            "name": "transferOwnership",
            "inputs": [
                {
                    "name": "newOwner",
                    "type": "address",
                    "internalType": "address"
                }
            ],
            "outputs": [],
            "stateMutability": "nonpayable"
        },
        {
            "type": "function",
            "name": "transferValidatorManagerOwnership",
            "inputs": [
                {
                    "name": "newOwner",
                    "type": "address",
                    "internalType": "address"
                }
            ],
            "outputs": [],
            "stateMutability": "nonpayable"
        },
        {
            "type": "function",
            "name": "validatorManager",
            "inputs": [],
            "outputs": [
                {
                    "name": "",
                    "type": "address",
                    "internalType": "contract ValidatorManager"
                }
            ],
            "stateMutability": "view"
        },
        {
            "type": "event",
            "name": "OwnershipTransferred",
            "inputs": [
                {
                    "name": "previousOwner",
                    "type": "address",
                    "indexed": true,
                    "internalType": "address"
                },
                {
                    "name": "newOwner",
                    "type": "address",
                    "indexed": true,
                    "internalType": "address"
                }
            ],
            "anonymous": false
        },
        {
            "type": "error",
            "name": "OwnableInvalidOwner",
            "inputs": [
                {
                    "name": "owner",
                    "type": "address",
                    "internalType": "address"
                }
            ]
        },
        {
            "type": "error",
            "name": "OwnableUnauthorizedAccount",
            "inputs": [
                {
                    "name": "account",
                    "type": "address",
                    "internalType": "address"
                }
            ]
        }
    ],
    "bytecode": {
        "object": "0x608060405234801561000f575f80fd5b50604051610f3d380380610f3d83398101604081905261002e916100f2565b806001600160a01b03811661005c57604051631e4fbdf760e01b81525f600482015260240160405180910390fd5b6100658161008c565b5050600180546001600160a01b0319166001600160a01b039290921691909117905561012a565b5f80546001600160a01b038381166001600160a01b0319831681178455604051919092169283917f8be0079c531659141344cd1fd0a4f28419497f9722a3daafe3b4186f6b6457e09190a35050565b6001600160a01b03811681146100ef575f80fd5b50565b5f8060408385031215610103575f80fd5b825161010e816100db565b602084015190925061011f816100db565b809150509250929050565b610e06806101375f395ff3fe608060405234801561000f575f80fd5b50600436106100f0575f3560e01c80639681d94011610093578063bee0a03f11610063578063bee0a03f146101ff578063ce161f1414610212578063f2fde38b14610242578063fe55bde914610255575f80fd5b80639681d940146101a55780639cb7624e146101c6578063a3a65e48146101d9578063b6e6a2ca146101ec575f80fd5b806366edba73116100ce57806366edba7314610153578063715018a61461016657806389f9f85b1461016e5780638da5cb5b14610181575f80fd5b806320d91b7a146100f457806330ffe4d714610109578063661096691461011c575b5f80fd5b61010761010236600461074f565b610268565b005b61010761011736600461079d565b6102cb565b61012f61012a3660046107d2565b610310565b604080516001600160401b0390931683526020830191909152015b60405180910390f35b610107610161366004610800565b6103a0565b610107610405565b61010761017c36600461082d565b610418565b5f546001600160a01b03165b6040516001600160a01b03909116815260200161014a565b6101b86101b336600461084d565b610452565b60405190815260200161014a565b6101b86101d4366004610a01565b6104ca565b6101b86101e736600461084d565b610555565b6101076101fa366004610800565b61058b565b61010761020d366004610800565b6105c4565b61022561022036600461084d565b6105fd565b604080519283526001600160401b0390911660208301520161014a565b61010761025036600461082d565b61067a565b60015461018d906001600160a01b031681565b60015460405163106c8dbd60e11b81526001600160a01b03909116906320d91b7a9061029a9085908590600401610be5565b5f604051808303815f87803b1580156102b1575f80fd5b505af11580156102c3573d5f803e3d5ffd5b505050505050565b6102d36106bc565b6001546040516330ffe4d760e01b81526004810184905263ffffffff831660248201526001600160a01b03909116906330ffe4d79060440161029a565b5f8061031a6106bc565b600154604051636610966960e01b8152600481018690526001600160401b03851660248201526001600160a01b039091169063661096699060440160408051808303815f875af1158015610370573d5f803e3d5ffd5b505050506040513d601f19601f820116820180604052508101906103949190610c82565b915091505b9250929050565b6103a86106bc565b6001546040516366edba7360e01b8152600481018390526001600160a01b03909116906366edba73906024015b5f604051808303815f87803b1580156103ec575f80fd5b505af11580156103fe573d5f803e3d5ffd5b5050505050565b61040d6106bc565b6104165f6106e8565b565b6104206106bc565b60015460405163f2fde38b60e01b81526001600160a01b0383811660048301529091169063f2fde38b906024016103d5565b60015460405163025a076560e61b815263ffffffff831660048201525f916001600160a01b031690639681d940906024015b6020604051808303815f875af11580156104a0573d5f803e3d5ffd5b505050506040513d601f19601f820116820180604052508101906104c49190610cae565b92915050565b5f6104d36106bc565b600154604051634e5bb12760e11b81526001600160a01b0390911690639cb7624e9061050b9089908990899089908990600401610d6e565b6020604051808303815f875af1158015610527573d5f803e3d5ffd5b505050506040513d601f19601f8201168201806040525081019061054b9190610cae565b9695505050505050565b600154604051631474cbc960e31b815263ffffffff831660048201525f916001600160a01b03169063a3a65e4890602401610484565b6105936106bc565b600154604051635b73516560e11b8152600481018390526001600160a01b039091169063b6e6a2ca906024016103d5565b6105cc6106bc565b60015460405163bee0a03f60e01b8152600481018390526001600160a01b039091169063bee0a03f906024016103d5565b60015460405163338587c560e21b815263ffffffff831660048201525f9182916001600160a01b039091169063ce161f149060240160408051808303815f875af115801561064d573d5f803e3d5ffd5b505050506040513d601f19601f820116820180604052508101906106719190610dd6565b91509150915091565b6106826106bc565b6001600160a01b0381166106b057604051631e4fbdf760e01b81525f60048201526024015b60405180910390fd5b6106b9816106e8565b50565b5f546001600160a01b031633146104165760405163118cdaa760e01b81523360048201526024016106a7565b5f80546001600160a01b038381166001600160a01b0319831681178455604051919092169283917f8be0079c531659141344cd1fd0a4f28419497f9722a3daafe3b4186f6b6457e09190a35050565b803563ffffffff8116811461074a575f80fd5b919050565b5f8060408385031215610760575f80fd5b82356001600160401b03811115610775575f80fd5b830160808186031215610786575f80fd5b915061079460208401610737565b90509250929050565b5f80604083850312156107ae575f80fd5b8235915061079460208401610737565b6001600160401b03811681146106b9575f80fd5b5f80604083850312156107e3575f80fd5b8235915060208301356107f5816107be565b809150509250929050565b5f60208284031215610810575f80fd5b5035919050565b80356001600160a01b038116811461074a575f80fd5b5f6020828403121561083d575f80fd5b61084682610817565b9392505050565b5f6020828403121561085d575f80fd5b61084682610737565b634e487b7160e01b5f52604160045260245ffd5b604080519081016001600160401b038111828210171561089c5761089c610866565b60405290565b604051601f8201601f191681016001600160401b03811182821017156108ca576108ca610866565b604052919050565b5f82601f8301126108e1575f80fd5b81356001600160401b038111156108fa576108fa610866565b61090d601f8201601f19166020016108a2565b818152846020838601011115610921575f80fd5b816020850160208301375f918101602001919091529392505050565b5f6040828403121561094d575f80fd5b61095561087a565b905061096082610737565b81526020808301356001600160401b038082111561097c575f80fd5b818501915085601f83011261098f575f80fd5b8135818111156109a1576109a1610866565b8060051b91506109b28483016108a2565b81815291830184019184810190888411156109cb575f80fd5b938501935b838510156109f0576109e185610817565b825293850193908501906109d0565b808688015250505050505092915050565b5f805f805f60a08688031215610a15575f80fd5b85356001600160401b0380821115610a2b575f80fd5b610a3789838a016108d2565b96506020880135915080821115610a4c575f80fd5b610a5889838a016108d2565b95506040880135915080821115610a6d575f80fd5b610a7989838a0161093d565b94506060880135915080821115610a8e575f80fd5b50610a9b8882890161093d565b9250506080860135610aac816107be565b809150509295509295909350565b5f808335601e19843603018112610acf575f80fd5b83016020810192503590506001600160401b03811115610aed575f80fd5b803603821315610399575f80fd5b81835281816020850137505f828201602090810191909152601f909101601f19169091010190565b5f8383855260208086019550808560051b830101845f5b87811015610bd857848303601f19018952813536889003605e19018112610b5f575f80fd5b87016060610b6d8280610aba565b828752610b7d8388018284610afb565b92505050610b8d86830183610aba565b86830388880152610b9f838284610afb565b925050506040808301359250610bb4836107be565b6001600160401b039290921694909101939093529783019790830190600101610b3a565b5090979650505050505050565b6040808252833582820152602084013560608301526001600160a01b0390610c0e908501610817565b1660808201525f6060840135601e19853603018112610c2b575f80fd5b84016020810190356001600160401b03811115610c46575f80fd5b8060051b3603821315610c57575f80fd5b608060a0850152610c6c60c085018284610b23565b92505050610846602083018463ffffffff169052565b5f8060408385031215610c93575f80fd5b8251610c9e816107be565b6020939093015192949293505050565b5f60208284031215610cbe575f80fd5b5051919050565b5f81518084525f5b81811015610ce957602081850181015186830182015201610ccd565b505f602082860101526020601f19601f83011685010191505092915050565b5f6040830163ffffffff8351168452602080840151604060208701528281518085526060880191506020830194505f92505b80831015610d635784516001600160a01b03168252938301936001929092019190830190610d3a565b509695505050505050565b60a081525f610d8060a0830188610cc5565b8281036020840152610d928188610cc5565b90508281036040840152610da68187610d08565b90508281036060840152610dba8186610d08565b9150506001600160401b03831660808301529695505050505050565b5f8060408385031215610de7575f80fd5b8251915060208301516107f5816107be56fea164736f6c6343000819000a",
        "linkReferences": {}
    },
    "methodIdentifiers": {
        "completeValidatorRegistration(uint32)": "a3a65e48",
        "completeValidatorRemoval(uint32)": "9681d940",
        "completeValidatorWeightUpdate(uint32)": "ce161f14",
        "initializeValidatorSet((bytes32,bytes32,address,(bytes,bytes,uint64)[]),uint32)": "20d91b7a",
        "initiateValidatorRegistration(bytes,bytes,(uint32,address[]),(uint32,address[]),uint64)": "9cb7624e",
        "initiateValidatorRemoval(bytes32)": "b6e6a2ca",
        "initiateValidatorWeightUpdate(bytes32,uint64)": "66109669",
        "migrateFromV1(bytes32,uint32)": "30ffe4d7",
        "owner()": "8da5cb5b",
        "renounceOwnership()": "715018a6",
        "resendRegisterValidatorMessage(bytes32)": "bee0a03f",
        "resendValidatorRemovalMessage(bytes32)": "66edba73",
        "transferOwnership(address)": "f2fde38b",
        "transferValidatorManagerOwnership(address)": "89f9f85b",
        "validatorManager()": "fe55bde9"
    },
    "id": 2
}