{
    "abi": [
        {
            "type": "function",
            "name": "POA_MANAGER_STORAGE_LOCATION",
            "inputs": [],
            "outputs": [
                {
                    "name": "",
                    "type": "bytes32",
                    "internalType": "bytes32"
                }
            ],
            "stateMutability": "view"
        },
        {
            "type": "function",
            "name": "completeValidatorRegistration",
            "inputs": [
                {
                    "name": "messageIndex",
                    "type": "uint32",
                    "internalType": "uint32"
                }
            ],
            "outputs": [
                {
                    "name": "",
                    "type": "bytes32",
                    "internalType": "bytes32"
                }
            ],
            "stateMutability": "nonpayable"
        },
        {
            "type": "function",
            "name": "completeValidatorRemoval",
            "inputs": [
                {
                    "name": "messageIndex",
                    "type": "uint32",
                    "internalType": "uint32"
                }
            ],
            "outputs": [
                {
                    "name": "",
                    "type": "bytes32",
                    "internalType": "bytes32"
                }
            ],
            "stateMutability": "nonpayable"
        },
        {
            "type": "function",
            "name": "completeValidatorWeightUpdate",
            "inputs": [
                {
                    "name": "messageIndex",
                    "type": "uint32",
                    "internalType": "uint32"
                }
            ],
            "outputs": [
                {
                    "name": "",
                    "type": "bytes32",
                    "internalType": "bytes32"
                },
                {
                    "name": "",
                    "type": "uint64",
                    "internalType": "uint64"
                }
            ],
            "stateMutability": "nonpayable"
        },
        {
            "type": "function",
            "name": "initialize",
            "inputs": [
                {
                    "name": "owner",
                    "type": "address",
                    "internalType": "address"
                },
                {
                    "name": "validatorManager",
                    "type": "address",
                    "internalType": "address"
                }
            ],
            "outputs": [],
            "stateMutability": "nonpayable"
        },
        {
            "type": "function",
            "name": "initiateValidatorRegistration",
            "inputs": [
                {
                    "name": "nodeID",
                    "type": "bytes",
                    "internalType": "bytes"
                },
                {
                    "name": "blsPublicKey",
                    "type": "bytes",
                    "internalType": "bytes"
                },
                {
                    "name": "remainingBalanceOwner",
                    "type": "tuple",
                    "internalType": "struct PChainOwner",
                    "components": [
                        {
                            "name": "threshold",
                            "type": "uint32",
                            "internalType": "uint32"
                        },
                        {
                            "name": "addresses",
                            "type": "address[]",
                            "internalType": "address[]"
                        }
                    ]
                },
                {
                    "name": "disableOwner",
                    "type": "tuple",
                    "internalType": "struct PChainOwner",
                    "components": [
                        {
                            "name": "threshold",
                            "type": "uint32",
                            "internalType": "uint32"
                        },
                        {
                            "name": "addresses",
                            "type": "address[]",
                            "internalType": "address[]"
                        }
                    ]
                },
                {
                    "name": "weight",
                    "type": "uint64",
                    "internalType": "uint64"
                }
            ],
            "outputs": [
                {
                    "name": "",
                    "type": "bytes32",
                    "internalType": "bytes32"
                }
            ],
            "stateMutability": "nonpayable"
        },
        {
            "type": "function",
            "name": "initiateValidatorRemoval",
            "inputs": [
                {
                    "name": "validationID",
                    "type": "bytes32",
                    "internalType": "bytes32"
                }
            ],
            "outputs": [],
            "stateMutability": "nonpayable"
        },
        {
            "type": "function",
            "name": "initiateValidatorWeightUpdate",
            "inputs": [
                {
                    "name": "validationID",
                    "type": "bytes32",
                    "internalType": "bytes32"
                },
                {
                    "name": "newWeight",
                    "type": "uint64",
                    "internalType": "uint64"
                }
            ],
            "outputs": [
                {
                    "name": "",
                    "type": "uint64",
                    "internalType": "uint64"
                },
                {
                    "name": "",
                    "type": "bytes32",
                    "internalType": "bytes32"
                }
            ],
            "stateMutability": "nonpayable"
        },
        {
            "type": "function",
            "name": "owner",
            "inputs": [],
            "outputs": [
                {
                    "name": "",
                    "type": "address",
                    "internalType": "address"
                }
            ],
            "stateMutability": "view"
        },
        {
            "type": "function",
            "name": "renounceOwnership",
            "inputs": [],
            "outputs": [],
            "stateMutability": "nonpayable"
        },
        {
            "type": "function",
            "name": "transferOwnership",
            "inputs": [
                {
                    "name": "newOwner",
                    "type": "address",
                    "internalType": "address"
                }
            ],
            "outputs": [],
            "stateMutability": "nonpayable"
        },
        {
            "type": "event",
            "name": "Initialized",
            "inputs": [
                {
                    "name": "version",
                    "type": "uint64",
                    "indexed": false,
                    "internalType": "uint64"
                }
            ],
            "anonymous": false
        },
        {
            "type": "event",
            "name": "OwnershipTransferred",
            "inputs": [
                {
                    "name": "previousOwner",
                    "type": "address",
                    "indexed": true,
                    "internalType": "address"
                },
                {
                    "name": "newOwner",
                    "type": "address",
                    "indexed": true,
                    "internalType": "address"
                }
            ],
            "anonymous": false
        },
        {
            "type": "error",
            "name": "InvalidInitialization",
            "inputs": []
        },
        {
            "type": "error",
            "name": "NotInitializing",
            "inputs": []
        },
        {
            "type": "error",
            "name": "OwnableInvalidOwner",
            "inputs": [
                {
                    "name": "owner",
                    "type": "address",
                    "internalType": "address"
                }
            ]
        },
        {
            "type": "error",
            "name": "OwnableUnauthorizedAccount",
            "inputs": [
                {
                    "name": "account",
                    "type": "address",
                    "internalType": "address"
                }
            ]
        }
    ],
    "bytecode": {
        "object": "0x6080604052348015600e575f80fd5b50610cbb8061001c5f395ff3fe608060405234801561000f575f80fd5b50600436106100a6575f3560e01c80639681d9401161006e5780639681d9401461015b5780639cb7624e1461016e578063a3a65e4814610181578063b6e6a2ca14610194578063ce161f14146101a7578063f2fde38b146101d8575f80fd5b80632fabc10a146100aa578063485cc955146100d157806366109669146100e6578063715018a6146101195780638da5cb5b14610121575b5f80fd5b6100be5f80516020610c8f83398151915281565b6040519081526020015b60405180910390f35b6100e46100df3660046107ed565b6101eb565b005b6100f96100f4366004610833565b6102fb565b6040805167ffffffffffffffff90931683526020830191909152016100c8565b6100e461039b565b7f9016d09d72d40fdae2fd8ceac6b6234c7706214fd39c1cd1e609a0528c199300546040516001600160a01b0390911681526020016100c8565b6100be610169366004610874565b6103ae565b6100be61017c366004610a2c565b610435565b6100be61018f366004610874565b6104ce565b6100e46101a2366004610ae6565b610512565b6101ba6101b5366004610874565b610587565b6040805192835267ffffffffffffffff9091166020830152016100c8565b6100e46101e6366004610afd565b610612565b7ff0c57e16840df040f15088dc2f81fe391c3923bec73e23a9662efc9c229c6a008054600160401b810460ff16159067ffffffffffffffff165f811580156102305750825b90505f8267ffffffffffffffff16600114801561024c5750303b155b90508115801561025a575080155b156102785760405163f92ee8a960e01b815260040160405180910390fd5b845467ffffffffffffffff1916600117855583156102a257845460ff60401b1916600160401b1785555b6102ac8787610651565b83156102f257845460ff60401b19168555604051600181527fc7f505b2f371ae2175ee4913f4499e1f2633a7b5936321eed1cdaeb6115181d29060200160405180910390a15b50505050505050565b5f8061030561066f565b5f5f80516020610c8f8339815191528054604051636610966960e01b81526004810188905267ffffffffffffffff871660248201529192506001600160a01b03169063661096699060440160408051808303815f875af115801561036b573d5f803e3d5ffd5b505050506040513d601f19601f8201168201806040525081019061038f9190610b16565b92509250509250929050565b6103a361066f565b6103ac5f6106ca565b565b5f80516020610c8f833981519152805460405163025a076560e61b815263ffffffff841660048201525f92916001600160a01b031690639681d940906024015b6020604051808303815f875af115801561040a573d5f803e3d5ffd5b505050506040513d601f19601f8201168201806040525081019061042e9190610b42565b9392505050565b5f61043e61066f565b5f80516020610c8f8339815191528054604051634e5bb12760e11b81526001600160a01b0390911690639cb7624e90610483908a908a908a908a908a90600401610c02565b6020604051808303815f875af115801561049f573d5f803e3d5ffd5b505050506040513d601f19601f820116820180604052508101906104c39190610b42565b979650505050505050565b5f80516020610c8f8339815191528054604051631474cbc960e31b815263ffffffff841660048201525f92916001600160a01b03169063a3a65e48906024016103ee565b61051a61066f565b5f5f80516020610c8f8339815191528054604051635b73516560e11b8152600481018590529192506001600160a01b03169063b6e6a2ca906024015f604051808303815f87803b15801561056c575f80fd5b505af115801561057e573d5f803e3d5ffd5b50505050505b50565b5f80805f80516020610c8f833981519152805460405163338587c560e21b815263ffffffff871660048201529192506001600160a01b03169063ce161f149060240160408051808303815f875af11580156105e4573d5f803e3d5ffd5b505050506040513d601f19601f820116820180604052508101906106089190610c6b565b9250925050915091565b61061a61066f565b6001600160a01b03811661064857604051631e4fbdf760e01b81525f60048201526024015b60405180910390fd5b610584816106ca565b61065961073a565b61066282610783565b61066b81610794565b5050565b336106a17f9016d09d72d40fdae2fd8ceac6b6234c7706214fd39c1cd1e609a0528c199300546001600160a01b031690565b6001600160a01b0316146103ac5760405163118cdaa760e01b815233600482015260240161063f565b7f9016d09d72d40fdae2fd8ceac6b6234c7706214fd39c1cd1e609a0528c19930080546001600160a01b031981166001600160a01b03848116918217845560405192169182907f8be0079c531659141344cd1fd0a4f28419497f9722a3daafe3b4186f6b6457e0905f90a3505050565b7ff0c57e16840df040f15088dc2f81fe391c3923bec73e23a9662efc9c229c6a0054600160401b900460ff166103ac57604051631afcd79f60e31b815260040160405180910390fd5b61078b61073a565b610584816107ca565b61079c61073a565b5f80516020610c8f83398151915280546001600160a01b0319166001600160a01b0392909216919091179055565b61061a61073a565b80356001600160a01b03811681146107e8575f80fd5b919050565b5f80604083850312156107fe575f80fd5b610807836107d2565b9150610815602084016107d2565b90509250929050565b67ffffffffffffffff81168114610584575f80fd5b5f8060408385031215610844575f80fd5b8235915060208301356108568161081e565b809150509250929050565b803563ffffffff811681146107e8575f80fd5b5f60208284031215610884575f80fd5b61042e82610861565b634e487b7160e01b5f52604160045260245ffd5b6040805190810167ffffffffffffffff811182821017156108c4576108c461088d565b60405290565b604051601f8201601f1916810167ffffffffffffffff811182821017156108f3576108f361088d565b604052919050565b5f82601f83011261090a575f80fd5b813567ffffffffffffffff8111156109245761092461088d565b610937601f8201601f19166020016108ca565b81815284602083860101111561094b575f80fd5b816020850160208301375f918101602001919091529392505050565b5f60408284031215610977575f80fd5b61097f6108a1565b905061098a82610861565b815260208083013567ffffffffffffffff808211156109a7575f80fd5b818501915085601f8301126109ba575f80fd5b8135818111156109cc576109cc61088d565b8060051b91506109dd8483016108ca565b81815291830184019184810190888411156109f6575f80fd5b938501935b83851015610a1b57610a0c856107d2565b825293850193908501906109fb565b808688015250505050505092915050565b5f805f805f60a08688031215610a40575f80fd5b853567ffffffffffffffff80821115610a57575f80fd5b610a6389838a016108fb565b96506020880135915080821115610a78575f80fd5b610a8489838a016108fb565b95506040880135915080821115610a99575f80fd5b610aa589838a01610967565b94506060880135915080821115610aba575f80fd5b50610ac788828901610967565b9250506080860135610ad88161081e565b809150509295509295909350565b5f60208284031215610af6575f80fd5b5035919050565b5f60208284031215610b0d575f80fd5b61042e826107d2565b5f8060408385031215610b27575f80fd5b8251610b328161081e565b6020939093015192949293505050565b5f60208284031215610b52575f80fd5b5051919050565b5f81518084525f5b81811015610b7d57602081850181015186830182015201610b61565b505f602082860101526020601f19601f83011685010191505092915050565b5f6040830163ffffffff8351168452602080840151604060208701528281518085526060880191506020830194505f92505b80831015610bf75784516001600160a01b03168252938301936001929092019190830190610bce565b509695505050505050565b60a081525f610c1460a0830188610b59565b8281036020840152610c268188610b59565b90508281036040840152610c3a8187610b9c565b90508281036060840152610c4e8186610b9c565b91505067ffffffffffffffff831660808301529695505050505050565b5f8060408385031215610c7c575f80fd5b8251915060208301516108568161081e56fe8e2427ab32c2585abb2a107c76f30b8d77c153bac188f081d4c40ff3fcf13200a164736f6c6343000819000a",
        "linkReferences": {}
    },
    "methodIdentifiers": {
        "POA_MANAGER_STORAGE_LOCATION()": "2fabc10a",
        "completeValidatorRegistration(uint32)": "a3a65e48",
        "completeValidatorRemoval(uint32)": "9681d940",
        "completeValidatorWeightUpdate(uint32)": "ce161f14",
        "initialize(address,address)": "485cc955",
        "initiateValidatorRegistration(bytes,bytes,(uint32,address[]),(uint32,address[]),uint64)": "9cb7624e",
        "initiateValidatorRemoval(bytes32)": "b6e6a2ca",
        "initiateValidatorWeightUpdate(bytes32,uint64)": "66109669",
        "owner()": "8da5cb5b",
        "renounceOwnership()": "715018a6",
        "transferOwnership(address)": "f2fde38b"
    },
    "id": 0
}