{"abi":[{"type":"constructor","inputs":[],"stateMutability":"nonpayable"},{"type":"function","name":"DEFAULT_ADMIN_ROLE","inputs":[],"outputs":[{"name":"","type":"bytes32","internalType":"bytes32"}],"stateMutability":"view"},{"type":"function","name":"MINTER_ROLE","inputs":[],"outputs":[{"name":"","type":"bytes32","internalType":"bytes32"}],"stateMutability":"view"},{"type":"function","name":"allowance","inputs":[{"name":"owner","type":"address","internalType":"address"},{"name":"spender","type":"address","internalType":"address"}],"outputs":[{"name":"","type":"uint256","internalType":"uint256"}],"stateMutability":"view"},{"type":"function","name":"approve","inputs":[{"name":"spender","type":"address","internalType":"address"},{"name":"value","type":"uint256","internalType":"uint256"}],"outputs":[{"name":"","type":"bool","internalType":"bool"}],"stateMutability":"nonpayable"},{"type":"function","name":"balanceOf","inputs":[{"name":"account","type":"address","internalType":"address"}],"outputs":[{"name":"","type":"uint256","internalType":"uint256"}],"stateMutability":"view"},{"type":"function","name":"burn","inputs":[{"name":"value","type":"uint256","internalType":"uint256"}],"outputs":[],"stateMutability":"nonpayable"},{"type":"function","name":"burnFrom","inputs":[{"name":"account","type":"address","internalType":"address"},{"name":"value","type":"uint256","internalType":"uint256"}],"outputs":[],"stateMutability":"nonpayable"},{"type":"function","name":"decimals","inputs":[],"outputs":[{"name":"","type":"uint8","internalType":"uint8"}],"stateMutability":"view"},{"type":"function","name":"getRoleAdmin","inputs":[{"name":"role","type":"bytes32","internalType":"bytes32"}],"outputs":[{"name":"","type":"bytes32","internalType":"bytes32"}],"stateMutability":"view"},{"type":"function","name":"grantRole","inputs":[{"name":"role","type":"bytes32","internalType":"bytes32"},{"name":"account","type":"address","internalType":"address"}],"outputs":[],"stateMutability":"nonpayable"},{"type":"function","name":"hasRole","inputs":[{"name":"role","type":"bytes32","internalType":"bytes32"},{"name":"account","type":"address","internalType":"address"}],"outputs":[{"name":"","type":"bool","internalType":"bool"}],"stateMutability":"view"},{"type":"function","name":"mint","inputs":[{"name":"account","type":"address","internalType":"address"},{"name":"amount","type":"uint256","internalType":"uint256"}],"outputs":[],"stateMutability":"nonpayable"},{"type":"function","name":"mint","inputs":[{"name":"amount","type":"uint256","internalType":"uint256"}],"outputs":[],"stateMutability":"nonpayable"},{"type":"function","name":"name","inputs":[],"outputs":[{"name":"","type":"string","internalType":"string"}],"stateMutability":"view"},{"type":"function","name":"renounceRole","inputs":[{"name":"role","type":"bytes32","internalType":"bytes32"},{"name":"callerConfirmation","type":"address","internalType":"address"}],"outputs":[],"stateMutability":"nonpayable"},{"type":"function","name":"revokeRole","inputs":[{"name":"role","type":"bytes32","internalType":"bytes32"},{"name":"account","type":"address","internalType":"address"}],"outputs":[],"stateMutability":"nonpayable"},{"type":"function","name":"supportsInterface","inputs":[{"name":"interfaceId","type":"bytes4","internalType":"bytes4"}],"outputs":[{"name":"","type":"bool","internalType":"bool"}],"stateMutability":"view"},{"type":"function","name":"symbol","inputs":[],"outputs":[{"name":"","type":"string","internalType":"string"}],"stateMutability":"view"},{"type":"function","name":"totalSupply","inputs":[],"outputs":[{"name":"","type":"uint256","internalType":"uint256"}],"stateMutability":"view"},{"type":"function","name":"transfer","inputs":[{"name":"to","type":"address","internalType":"address"},{"name":"value","type":"uint256","internalType":"uint256"}],"outputs":[{"name":"","type":"bool","internalType":"bool"}],"stateMutability":"nonpayable"},{"type":"function","name":"transferFrom","inputs":[{"name":"from","type":"address","internalType":"address"},{"name":"to","type":"address","internalType":"address"},{"name":"value","type":"uint256","internalType":"uint256"}],"outputs":[{"name":"","type":"bool","internalType":"bool"}],"stateMutability":"nonpayable"},{"type":"event","name":"Approval","inputs":[{"name":"owner","type":"address","indexed":true,"internalType":"address"},{"name":"spender","type":"address","indexed":true,"internalType":"address"},{"name":"value","type":"uint256","indexed":false,"internalType":"uint256"}],"anonymous":false},{"type":"event","name":"RoleAdminChanged","inputs":[{"name":"role","type":"bytes32","indexed":true,"internalType":"bytes32"},{"name":"previousAdminRole","type":"bytes32","indexed":true,"internalType":"bytes32"},{"name":"newAdminRole","type":"bytes32","indexed":true,"internalType":"bytes32"}],"anonymous":false},{"type":"event","name":"RoleGranted","inputs":[{"name":"role","type":"bytes32","indexed":true,"internalType":"bytes32"},{"name":"account","type":"address","indexed":true,"internalType":"address"},{"name":"sender","type":"address","indexed":true,"internalType":"address"}],"anonymous":false},{"type":"event","name":"RoleRevoked","inputs":[{"name":"role","type":"bytes32","indexed":true,"internalType":"bytes32"},{"name":"account","type":"address","indexed":true,"internalType":"address"},{"name":"sender","type":"address","indexed":true,"internalType":"address"}],"anonymous":false},{"type":"event","name":"Transfer","inputs":[{"name":"from","type":"address","indexed":true,"internalType":"address"},{"name":"to","type":"address","indexed":true,"internalType":"address"},{"name":"value","type":"uint256","indexed":false,"internalType":"uint256"}],"anonymous":false},{"type":"error","name":"AccessControlBadConfirmation","inputs":[]},{"type":"error","name":"AccessControlUnauthorizedAccount","inputs":[{"name":"account","type":"address","internalType":"address"},{"name":"neededRole","type":"bytes32","internalType":"bytes32"}]},{"type":"error","name":"ERC20InsufficientAllowance","inputs":[{"name":"spender","type":"address","internalType":"address"},{"name":"allowance","type":"uint256","internalType":"uint256"},{"name":"needed","type":"uint256","internalType":"uint256"}]},{"type":"error","name":"ERC20InsufficientBalance","inputs":[{"name":"sender","type":"address","internalType":"address"},{"name":"balance","type":"uint256","internalType":"uint256"},{"name":"needed","type":"uint256","internalType":"uint256"}]},{"type":"error","name":"ERC20InvalidApprover","inputs":[{"name":"approver","type":"address","internalType":"address"}]},{"type":"error","name":"ERC20InvalidReceiver","inputs":[{"name":"receiver","type":"address","internalType":"address"}]},{"type":"error","name":"ERC20InvalidSender","inputs":[{"name":"sender","type":"address","internalType":"address"}]},{"type":"error","name":"ERC20InvalidSpender","inputs":[{"name":"spender","type":"address","internalType":"address"}]}],"bytecode":{"object":"0x608060405234801561000f575f80fd5b506040518060400160405280600a81526020016926b7b1b5902a37b5b2b760b11b81525060405180604001604052806004815260200163045584d560e41b815250816003908161005f919061036a565b50600461006c828261036a565b5061007b91505f9050336100c2565b506100a67f9f2df0fed2c77648de5860a4cc508cd0818c85b8b8a1ab4ceeef8d981c8956a6336100c2565b506100bd336b204fce5e3e2502611000000061016f565b610448565b5f8281526005602090815260408083206001600160a01b038516845290915281205460ff16610166575f8381526005602090815260408083206001600160a01b03861684529091529020805460ff1916600117905561011e3390565b6001600160a01b0316826001600160a01b0316847f2f8788117e7eff1d82e926ec794901d17c78024a50270940304540a733656f0d60405160405180910390a4506001610169565b505f5b92915050565b6001600160a01b03821661019d5760405163ec442f0560e01b81525f60048201526024015b60405180910390fd5b6101a85f83836101ac565b5050565b6001600160a01b0383166101d6578060025f8282546101cb9190610429565b909155506102469050565b6001600160a01b0383165f90815260208190526040902054818110156102285760405163391434e360e21b81526001600160a01b03851660048201526024810182905260448101839052606401610194565b6001600160a01b0384165f9081526020819052604090209082900390555b6001600160a01b03821661026257600280548290039055610280565b6001600160a01b0382165f9081526020819052604090208054820190555b816001600160a01b0316836001600160a01b03167fddf252ad1be2c89b69c2b068fc378daa952ba7f163c4a11628f55a4df523b3ef836040516102c591815260200190565b60405180910390a3505050565b634e487b7160e01b5f52604160045260245ffd5b600181811c908216806102fa57607f821691505b60208210810361031857634e487b7160e01b5f52602260045260245ffd5b50919050565b601f82111561036557805f5260205f20601f840160051c810160208510156103435750805b601f840160051c820191505b81811015610362575f815560010161034f565b50505b505050565b81516001600160401b03811115610383576103836102d2565b6103978161039184546102e6565b8461031e565b602080601f8311600181146103ca575f84156103b35750858301515b5f19600386901b1c1916600185901b178555610421565b5f85815260208120601f198616915b828110156103f8578886015182559484019460019091019084016103d9565b508582101561041557878501515f19600388901b60f8161c191681555b505060018460011b0185555b505050505050565b8082018082111561016957634e487b7160e01b5f52601160045260245ffd5b610c88806104555f395ff3fe608060405234801561000f575f80fd5b5060043610610132575f3560e01c806342966c68116100b4578063a0712d6811610079578063a0712d6814610280578063a217fddf14610293578063a9059cbb1461029a578063d5391393146102ad578063d547741f146102d4578063dd62ed3e146102e7575f80fd5b806342966c681461021757806370a082311461022a57806379cc67901461025257806391d148541461026557806395d89b4114610278575f80fd5b8063248a9ca3116100fa578063248a9ca3146101ab5780632f2ff15d146101cd578063313ce567146101e257806336568abe146101f157806340c10f1914610204575f80fd5b806301ffc9a71461013657806306fdde031461015e578063095ea7b31461017357806318160ddd1461018657806323b872dd14610198575b5f80fd5b610149610144366004610aac565b61031f565b60405190151581526020015b60405180910390f35b610166610355565b6040516101559190610ada565b610149610181366004610b41565b6103e5565b6002545b604051908152602001610155565b6101496101a6366004610b69565b6103fc565b61018a6101b9366004610ba2565b5f9081526005602052604090206001015490565b6101e06101db366004610bb9565b61041f565b005b60405160128152602001610155565b6101e06101ff366004610bb9565b610449565b6101e0610212366004610b41565b610481565b6101e0610225366004610ba2565b610512565b61018a610238366004610be3565b6001600160a01b03165f9081526020819052604090205490565b6101e0610260366004610b41565b61051f565b610149610273366004610bb9565b610538565b610166610562565b6101e061028e366004610ba2565b610571565b61018a5f81565b6101496102a8366004610b41565b6105fd565b61018a7f9f2df0fed2c77648de5860a4cc508cd0818c85b8b8a1ab4ceeef8d981c8956a681565b6101e06102e2366004610bb9565b61060a565b61018a6102f5366004610bfc565b6001600160a01b039182165f90815260016020908152604080832093909416825291909152205490565b5f6001600160e01b03198216637965db0b60e01b148061034f57506301ffc9a760e01b6001600160e01b03198316145b92915050565b60606003805461036490610c24565b80601f016020809104026020016040519081016040528092919081815260200182805461039090610c24565b80156103db5780601f106103b2576101008083540402835291602001916103db565b820191905f5260205f20905b8154815290600101906020018083116103be57829003601f168201915b5050505050905090565b5f336103f281858561062e565b5060019392505050565b5f3361040985828561063b565b6104148585856106b0565b506001949350505050565b5f828152600560205260409020600101546104398161070d565b6104438383610717565b50505050565b6001600160a01b03811633146104725760405163334bd91960e11b815260040160405180910390fd5b61047c82826107a8565b505050565b7f9f2df0fed2c77648de5860a4cc508cd0818c85b8b8a1ab4ceeef8d981c8956a66104ab8161070d565b678ac7230489e800008211156105085760405162461bcd60e51b815260206004820152601f60248201527f4578616d706c6545524332303a206d6178206d696e742065786365656465640060448201526064015b60405180910390fd5b61047c8383610813565b61051c3382610847565b50565b61052a82338361063b565b6105348282610847565b5050565b5f9182526005602090815260408084206001600160a01b0393909316845291905290205460ff1690565b60606004805461036490610c24565b7f9f2df0fed2c77648de5860a4cc508cd0818c85b8b8a1ab4ceeef8d981c8956a661059b8161070d565b678ac7230489e800008211156105f35760405162461bcd60e51b815260206004820152601f60248201527f4578616d706c6545524332303a206d6178206d696e742065786365656465640060448201526064016104ff565b6105343383610813565b5f336103f28185856106b0565b5f828152600560205260409020600101546106248161070d565b61044383836107a8565b61047c838383600161087b565b6001600160a01b038381165f908152600160209081526040808320938616835292905220545f19811461044357818110156106a257604051637dc7a0d960e11b81526001600160a01b038416600482015260248101829052604481018390526064016104ff565b61044384848484035f61087b565b6001600160a01b0383166106d957604051634b637e8f60e11b81525f60048201526024016104ff565b6001600160a01b0382166107025760405163ec442f0560e01b81525f60048201526024016104ff565b61047c83838361094d565b61051c8133610a73565b5f6107228383610538565b6107a1575f8381526005602090815260408083206001600160a01b03861684529091529020805460ff191660011790556107593390565b6001600160a01b0316826001600160a01b0316847f2f8788117e7eff1d82e926ec794901d17c78024a50270940304540a733656f0d60405160405180910390a450600161034f565b505f61034f565b5f6107b38383610538565b156107a1575f8381526005602090815260408083206001600160a01b0386168085529252808320805460ff1916905551339286917ff6391f5c32d9c69d2a47ea670b442974b53935d1edc7fd64eb21e047a839171b9190a450600161034f565b6001600160a01b03821661083c5760405163ec442f0560e01b81525f60048201526024016104ff565b6105345f838361094d565b6001600160a01b03821661087057604051634b637e8f60e11b81525f60048201526024016104ff565b610534825f8361094d565b6001600160a01b0384166108a45760405163e602df0560e01b81525f60048201526024016104ff565b6001600160a01b0383166108cd57604051634a1406b160e11b81525f60048201526024016104ff565b6001600160a01b038085165f908152600160209081526040808320938716835292905220829055801561044357826001600160a01b0316846001600160a01b03167f8c5be1e5ebec7d5bd14f71427d1e84f3dd0314c0f7b2291e5b200ac8c7c3b9258460405161093f91815260200190565b60405180910390a350505050565b6001600160a01b038316610977578060025f82825461096c9190610c5c565b909155506109e79050565b6001600160a01b0383165f90815260208190526040902054818110156109c95760405163391434e360e21b81526001600160a01b038516600482015260248101829052604481018390526064016104ff565b6001600160a01b0384165f9081526020819052604090209082900390555b6001600160a01b038216610a0357600280548290039055610a21565b6001600160a01b0382165f9081526020819052604090208054820190555b816001600160a01b0316836001600160a01b03167fddf252ad1be2c89b69c2b068fc378daa952ba7f163c4a11628f55a4df523b3ef83604051610a6691815260200190565b60405180910390a3505050565b610a7d8282610538565b6105345760405163e2517d3f60e01b81526001600160a01b0382166004820152602481018390526044016104ff565b5f60208284031215610abc575f80fd5b81356001600160e01b031981168114610ad3575f80fd5b9392505050565b5f602080835283518060208501525f5b81811015610b0657858101830151858201604001528201610aea565b505f604082860101526040601f19601f8301168501019250505092915050565b80356001600160a01b0381168114610b3c575f80fd5b919050565b5f8060408385031215610b52575f80fd5b610b5b83610b26565b946020939093013593505050565b5f805f60608486031215610b7b575f80fd5b610b8484610b26565b9250610b9260208501610b26565b9150604084013590509250925092565b5f60208284031215610bb2575f80fd5b5035919050565b5f8060408385031215610bca575f80fd5b82359150610bda60208401610b26565b90509250929050565b5f60208284031215610bf3575f80fd5b610ad382610b26565b5f8060408385031215610c0d575f80fd5b610c1683610b26565b9150610bda60208401610b26565b600181811c90821680610c3857607f821691505b602082108103610c5657634e487b7160e01b5f52602260045260245ffd5b50919050565b8082018082111561034f57634e487b7160e01b5f52601160045260245ffdfea164736f6c6343000819000a","linkReferences":{}},"methodIdentifiers":{"DEFAULT_ADMIN_ROLE()":"a217fddf","MINTER_ROLE()":"d5391393","allowance(address,address)":"dd62ed3e","approve(address,uint256)":"095ea7b3","balanceOf(address)":"70a08231","burn(uint256)":"42966c68","burnFrom(address,uint256)":"79cc6790","decimals()":"313ce567","getRoleAdmin(bytes32)":"248a9ca3","grantRole(bytes32,address)":"2f2ff15d","hasRole(bytes32,address)":"91d14854","mint(address,uint256)":"40c10f19","mint(uint256)":"a0712d68","name()":"06fdde03","renounceRole(bytes32,address)":"36568abe","revokeRole(bytes32,address)":"d547741f","supportsInterface(bytes4)":"01ffc9a7","symbol()":"95d89b41","totalSupply()":"18160ddd","transfer(address,uint256)":"a9059cbb","transferFrom(address,address,uint256)":"23b872dd"},"id":0}